:1000000012C095C020C01FC01EC01DC01CC01BC098
:100010001BC019C018C017C016C015C014C013C02B
:1000200012C011C010C011241FBECFE5D4E0DEBF46
:10003000CDBF20E0A0E6B0E001C01D92AE38B2070F
:10004000E1F77CD116C3DCCF1F920F920FB60F924F
:1000500011242F933F934F935F936F937F938F93CD
:100060009F93AF93BF93CF93DF93EF93FF938091D1
:100070007E008093760080917F008093770080914E
:100080008000809378008091810080937900809136
:10009000820080937A008091830080937B0080911E
:1000A000840080937C008091850080937D00209166
:1000B0007200309173004091740050917500ABE96B
:1000C000B0E036D224E630E040E050E00FD2DA0172
:1000D000C90120937E0090937F00A0938000B0938D
:1000E000810010928200109283001092840010927E
:1000F000850010927200109273001092740010929A
:10010000750081E080936100FF91EF91DF91CF91C5
:10011000BF91AF919F918F917F916F915F914F911F
:100120003F912F910F900FBE0F901F9018951F9227
:100130000F920FB60F9211248F939F93AF93BF939B
:100140008091720090917300A0917400B09175003D
:100150000196A11DB11D8093720090937300A0932E
:100160007400B0937500BF91AF919F918F910F90E4
:100170000FBE0F901F90189598E022E0382F611164
:1001800004C0331F3327331F01C0317035BB00005B
:1001900025BB0000A9980000611102C0880F01C0B2
:1001A0008695915059F708951F93CF93DF931F922F
:1001B000CDB7DEB7162FAA9860E04983DDDF49810D
:1001C000642F812FD9DFAA9A0F90DF91CF911F91D1
:1001D00008952F923F924F925F926F927F928F92EB
:1001E0009F92AF92BF92CF92DF92EF92FF920F93C6
:1001F0001F93CF93DF93E0916000EF5FE093600087
:1002000020917600309177004091780050917900EC
:1002100060917A0070917B0080917C0090917D00CC
:10022000A0907E00B0907F00C0908000D0908100B0
:10023000E0908200F090830000918400109185008E
:10024000EBD101E0CDD129013A011B01D82FC92FF3
:10025000E730C4F02AE0A22EB12CC12CD12CE12C25
:10026000F12C00E010E092016FD1206820938C0007
:100270009201A301B1018D2F9C2F64D120938D0099
:100280001092600042019201A301B1018D2F9C2FB9
:10029000AFE2D7D121F018F09FE2892E912C8FE2A6
:1002A00090E08C01081919092FEF3FEF4FEF5FEF36
:1002B0006FEF7FEF80E090E091D149015A016B012F
:1002C000182FB92F86E8E82E80E0F82EE701E0E04D
:1002D000F0E09401A501B601812F9B2F0E2F80D154
:1002E000A22FAA0FA11DA9933896E033F10589F733
:1002F00006E810E0C1E0802F8E19863014F441E04A
:1003000001C040E0F80160818C2F4EDFCF5F0F5FAE
:100310001F4FC93081F7DF91CF911F910F91FF904F
:10032000EF90DF90CF90BF90AF909F908F907F9095
:100330006F905F904F903F902F90089517BA11BA29
:1003400087E084BBAA9A40E060E08FE02DDF40E0C8
:1003500061E08CE029DF40E067E08BE025DF40E0F2
:1003600060EC89E021DF40E06AE08AE01DDF8BB7C6
:1003700080648BBF85B7836085BF82E08EBD84E0DB
:1003800089BFE12CF12C00E010E0D0E0C0E0C12CEE
:10039000D12CE0927E00F0927F00009380001093B9
:1003A0008100D0938200C0938300C0928400D092D9
:1003B0008500E0927600F092770000937800109329
:1003C0007900D0937A00C0937B00C0927C00D092D9
:1003D0007D00FFDE8FE295E70197F1F700C0000096
:1003E0009701A8016D2F7C2FC601A1E01ED17901D4
:1003F0008A01D62FC72F6C01AFE223D151F6E092CC
:100400007E00F0927F000093800010938100D093D3
:100410008200C0938300C0928400D0928500E09255
:100420007600F09277000093780010937900D093D3
:100430007A00C0937B00C0927C00D0927D00C9DE20
:100440009FEBE4ED21E09150E0402040E1F700C057
:1004500000009701A8016D2F7C2FC601AFEFE5D0FA
:1004600079018A01D62FC72F6C01A0E0EAD039F6B6
:10047000789480916100882321F0ABDE10926100B6
:10048000789420916A0030916B0040916C005091FB
:100490006D0060916E0070916F008091700090917E
:1004A0007100283C31054105510561057105810543
:1004B0009105F9F2F0F210927E0010927F001092F6
:1004C000800010928100109282001092830010929E
:1004D0008400109285007DDE2FE78FE492E12150A9
:1004E00080409040E1F700C00000C3CFA1E21A2E87
:1004F000AA1BBB1BFD010DC0AA1FBB1FEE1FFF1FC8
:10050000A217B307E407F50720F0A21BB30BE40B17
:10051000F50B661F771F881F991F1A9469F760955E
:100520007095809590959B01AC01BD01CF01089518
:1005300094D0A59F900DB49F900DA49F800D911D08
:1005400011240895689401C0E8948F929F92CF93EC
:10055000DF9305D0DF91CF919F908F9008958824ED
:100560009924F401E401B0E41B2ED4019D158E04FE
:100570009F04E007F10738F4FC014B01CA01B901FF
:10058000AD019E011694220F331F441F551F661F95
:10059000771F881F991F881C991CEE1FFF1FCC1FF7
:1005A000DD1FAA1FBB1F8A149B04EC05FD05CE05A9
:1005B000DF05A007B10748F08A189B08EC09FD0980
:1005C000CE09DF09A00BB10B21601A94E1F62EF4DD
:1005D0009401AF01BE01CD01000C089597FB10F806
:1005E000169400080F93083098F00850232F342FEA
:1005F000452F562F672F782F892F902DF4CF0594F4
:10060000979587957795679557954795379527954A
:100610000A95AAF70F9108952A0D3B1D4C1D5D1DEB
:100620006E1D7F1D801F911F08950024A7FD00945B
:100630002A0F301D401D501D601D701D801D901D16
:1006400008950024A7FD00942A17300540055005A1
:1006500060057005800590050895A29FB001B39FC5
:10066000C001A39F01D0B29F700D811D1124911D67
:060670000895F894FFCF8D
:00000001FF
